:0200000069286D
:0E0006008312031321088A00200882000800DC
:10001400831603139818102800000A288312240852
:040024009900080037
:10002800FF3083120313A4000A200D30FC00FB30BC
:10003800FD00FD0B1D28FC0B1D28000000002208F8
:10004800A4000A200D30FC00FB30FD00FD0B2A281F
:10005800FC0B2A28000000002308A4000A200D3009
:10006800FC00FB30FD00FD0B3728FC0B3728000097
:10007800000023082207A400A4090A200D30FC0070
:10008800FB30FD00FD0B4628FC0B46280000000055
:0200980008005E
:10009A0083160313981690308312980083168614D9
:1000AA00061183128C1E5C281A08F00056280800D4
:1000BA0003208A110A128000840AA00A0319A10ADD
:0800CA00F003031D5D2808008E
:1000D200FD30831603138600CF30990018154D208A
:1000E2008230FC00DD30FD00FD0B7528FC0B75280D
:1000F20000000000061883284130A2000130A3004E
:10010200142087284130A200A301142086188F28CA
:100112004230A2000130A300142093284230A200F2
:08012200A30114207B2894289E
:02400E0010217F
:00000001FF
