:02000000522884
:10000600831603139818092800000328831224086E
:040016009900080045
:10001A008316031398169030831298008316861459
:10002A00061183128C1E1C281A08F00016280800D4
:10003A00FF3083120313A40003201A30FC00F830A7
:10004A00FD00FD0B2628FC0B262800002208A40030
:10005A0003201A30FC00F830FD00FD0B3228FC0B9F
:10006A00322800002308A40003201A30FC00F830CC
:10007A00FD00FD0B3E28FC0B3E280000230822074A
:10008A00A400A40903201A30FC00F830FD00FD0B7F
:0A009A004C28FC0B4C280000080065
:1000A400FB30831603138600CF30990018110D20FE
:1000B4000330FB000830FC007730FD00FD0B6028A6
:1000C400FC0B6028FB0B602806186D284130A20049
:1000D4000130A3001D20861974284230A20001308B
:1000E400A3001D20861A7B284330A2000130A30000
:1000F4001D20061B82284430A2000130A3001D20CD
:10010400061A89284530A2000130A3001D20061CD0
:100114008F28861D8F28031490280310031C96280B
:10012400861E9628701497287010701C9D28061F30
:100134009D2803149E280310031CA428061EA4282B
:100144007014A5287010701CB7284130A200A301B8
:100154001D204230A200A3011D204330A200A301B0
:0E0164001D204430A200A3011D206628B828EB
:02400E00023D71
:00000001FF
