:02000000752960
:10000800FF00030E8301B2000A08B3008A017008DA
:10001800A1007108A0000408A2003030B800273001
:10002800B9002830BA002A212808031959283008AD
:10003800413A031D292827182328061024280614C6
:10004800271828288612292886163008423A031DC0
:10005800372827183128861032288614271836287A
:100068000613372806173008433A031D4528271872
:100078003F28061040280614271844280613452848
:1000880006173008443A031D532827184D288612AE
:100098004E288616271852288610532886143008AA
:1000A800453A031D59286530AE002108F0002008A4
:1000B800F1002208840033088A00320E8300FF0E04
:0400C8007F0E09009E
:0E00CC001D3083120313FD00FD0B6A2808008F
:1000DA00831203131A08F100981C752818121816AF
:0600EA007108F00008009F
:0E00F0008312031326088A00250882000800E8
:1000FE0083120313FB01FA01F9018030F800F10CB1
:10010E00F00C031C93287408F90775080318750F73
:10011E00FA070318FB0A0310F01F9B287408FA074E
:10012E0075080318750FFB07FB0CFA0CF90CF80C8D
:10013E00031C86287B08F3007A08F2007908F10088
:06014E007808F000080033
:10015400831603139816903083129800831687171A
:10016400071383128C1EB9281A08F000B32808005C
:10017400831603131208013EF000F1010318F10A7B
:1001840083123408F400F5017F200630F200700871
:10019400F4007108F50072080319D528F50CF40C65
:1001A400F513FF3ECE280430F1007408F000710806
:1001B4000319E028F00D7010FF3EDA283030700586
:1001C400F3007408F0007508F100F10CF00CF11361
:1001D400F10CF00CF113700895000F3097057308BB
:0401E4009704080074
:1001E800831603130711831212150C3097040800A5
:0C01F800831203139501171297120800E0
:10020400831203139F01C0309F042409F000700877
:1002140083169F051F179F1783123408F000F00DF3
:100224007010F00D7010F00D701070089F041F1402
:1002340066201F151F1D202900001C291F101E08E1
:10024400F100F00183161E08F0040030F1040800E8
:10025400831203133A08840080018C1E68298C12CF
:100264006D207008BB00310803196129AF0A2F08FB
:10027400013A031D4129380884003B0880002F08F7
:10028400023A031D4929390884003B0880002F08DD
:10029400033A031D6029B101380884000008F00006
:1002A400390884000008F0077009F1003B08710662
:1002B400031D60293A0884000130800068293B0846
:0E02C400FF3A031D68290130B100AF010800A8
:1002D20078208A110A128000840AA50A0319A60A44
:0802E200F003031D6929080067
:1002EA0034220730831603139C009C3086009C300E
:1002FA0083128600803083168700831287010130BB
:10030A009F0083168C168B170B17CF309900181184
:10031A00AA200330FB000830FC007730FD00FD0BFB
:10032A009429FC0B9429FB0B942912149210C730C0
:10033A0083169200FC20F4202308B400BA202E0869
:10034A00653A031D2B2AB401022170088312AA0000
:10035A007108AB00AC01AD01CC30A300CC30B400C5
:10036A00BA206230AE00061486168030F000803063
:10037A002D067002031DCB292C08003C031DCB2936
:10038A002B08003C031DCB292A08613C0318292AA3
:10039A003430FC00F130FD00FD0BD129FC0BD129D2
:1003AA0000000000061086120330FB000830FC0033
:1003BA007730FD00FD0BDF29FC0BDF29FB0BDF2962
:1003CA00861406170B30FB002630FC005D30FD005A
:1003DA00FD0BED29FC0BED29FB0BED2900000000BC
:1003EA008610061329080319122A0614061719304B
:1003FA00FB005A30FC00B130FD00FD0B022AFC0B59
:10040A00022AFB0B022A0000000006100613290824
:10041A000130031D0030A900292A861486161930D6
:10042A00FB005A30FC00B130FD00FD0B1A2AFC0B10
:10043A001A2AFB0B1A2A00000000861086122908C5
:10044A000130031D0030A900FF30A300A4292C2A83
:1004680023308400023083120313F0003230A500D9
:080478000230A6006921080012
:02046400FF3463
:020466000F3451
:02400E00022F7F
:00000001FF
