:02000000A32833
:10000800FF00030E8301AA000A08A9008A017008EC
:10001800A0000408A1002230AB002330AC0024303B
:10002800AD006420240803192B282208413A031D37
:100038002228231821280610222806142208423ACA
:10004800031D2B2823182A2886122B2886162008F9
:10005800F0002108840029088A002A0E8300FF0E78
:040068007F0E0900FE
:10006C00831203131A08F100981C3E281812181654
:06007C007108F00008000D
:0E0082008312031326088A0025088200080056
:1000900041208A110A128000840AA50A0319A60ABF
:0800A000F003031D48280800CD
:1000A80083160313981690308312980083168614CB
:1000B800061183128C1E63281A08F0005D280800B8
:1000C800831203132D08840080018C1EA2288C1231
:1000D80036207008AE00270803199B28A80A2808AC
:1000E800013A031D7B282B0884002E08800028086D
:1000F800023A031D83282C0884002E088000280853
:10010800033A031D9A28A7012B0884000008F00071
:100118002C0884000008F0077009F1002E08710609
:10012800031D9A282D08840001308000A2282E087B
:0E013800FF3A031DA2280130A700A80108000D
:100146000730831203139F00DE3083168600DE30ED
:100156008312860083168C168B170B17CF309900E7
:10016600181554208230FC00DD30FD00FD0BB92847
:0C017600FC0BB92800000000BF28C028C6
:02400E0010217F
:00000001FF
