:020000002F28A7
:1000060083120313AA01AB0100302506031D0D2838
:1000160001302406031D13280430AA070318AB0A6F
:1000260000302706031D192801302606031D1F2848
:100036000230AA070318AB0A00302906031D25283B
:1000460001302806031D2A28AA0A0319AB0A2A0822
:08005600F0002B08F100080086
:10005E0083120313A201A30107309F0010308316F1
:10006E008500813086008312850186010030861B53
:10007E000130A400A501003006180130A600A7012A
:10008E000030051A0130A800A90103207008A20053
:10009E007108A30000307106031D57280130700649
:1000AE00031D5E280A308500283086008F28003018
:1000BE002306031D642802302206031D69288501CC
:1000CE0086018F2800302306031D6F280330220679
:1000DE00031D762805308500503086008F280030AD
:1000EE002306031D7C2804302206031D83280530B9
:1000FE008500283086008F2800302306031D8928AE
:10010E0005302206031D8F280A30850050308600E8
:10011E000330FB000830FC007730FD00FD0B952806
:0C012E00FC0B9528FB0B95283D289C2815
:02400E004A2145
:00000001FF
